S01700004763634170706C69636174696F6E322E737265635A
S113000013C07CC136C035C034C033C062C16CC1BA
S113001030C02FC02EC012C12CC02BC02AC029C092
S113002028C027C026C08B0111241FBECFE5D4E011
S1130030DEBFCDBF10E0A0E6B0E0E0E6F3E002C032
S113004005900D92A439B107D9F720E0A4E9B0E0F6
S113005001C01D92AF39B207E1F710E0C4E1D0E06E
S113006003C02197FE0160D1C331D107D1F7DDD0A0
S113007075C1C6CFA89A2FEF83ED90E3215080403D
S11300809040E1F700C00000A8982FEF83ED90E3C3
S1130090215080409040E1F700C000000895CF93C4
S11300A0DF93EC0160E670E050D1892B19F4939A48
S11300B0E1DF67C064E670E0CE0147D1892B19F413
S11300C0D9DF93985EC068E670E0CE013ED1892BFB
S11300D011F4949A56C06CE670E0CE0136D1892BA7
S11300E011F494984EC060E770E0CE012ED1892BB4
S11300F011F4959A46C064E770E0CE0126D1892BAD
S113010011F495983EC068E770E0CE011ED1892BAA
S113011011F4969A36C06CE770E0CE0116D1892BA3
S113012011F496982EC060E870E0CE010ED1892BB0
S113013011F4979A26C064E870E0CE0106D1892BA9
S113014011F497981EC068E870E0CE01FED0892BA8
S113015011F4C09A16C06CE870E0CE01F6D0892B79
S113016011F4C0980EC060E970E0CE01EED0892B86
S113017041F4AD988FE39CE90197F1F700C00000CA
S1130180AD9ADF91CF91089581B3886F81BB82B31B
S1130190877082BBC098B89AA59A84B3817E84BBC9
S11301A085B38E6385BB08958AB188698AB980B5A1
S11301B08E6880BD87E689B910BC08959C9909C0F2
S11301C08091970081110CC0939A81E080939700ED
S11301D007C080919700882319F093981092970094
S11301E09B9909C08091960081110CC0949A81E07A
S11301F08093960007C080919600882319F0949804
S1130200109296009A9909C08091950081110CC0B2
S1130210959A81E0809395000895809195008823B4
S113022019F095981092950008958B9A8FEF84BBDE
S113023021DF7894A9DFB8DFC1DFFECF1F920F92D0
S11302400FB60F9211242F933F934F935F936F93A5
S11302507F938F939F93AF93BF93CF93EF93FF932A
S1130260CCB1E8E9F0E0C083118280E78CB9BF012A
S11302708AE990E05FD0C33271F4EAE9F0E00190DA
S11302800020E9F7EE59F04031F48AE990E007DF05
S113029010929A000CC0EAE9F0E001900020E9F71E
S11302A03197EA59F040349710F010929A00FF9178
S11302B0EF91CF91BF91AF919F918F917F916F916A
S11302C05F914F913F912F910F900FBE0F901F9010
S11302D018951F920F920FB60F92112493980F90B6
S11302E00FBE0F901F9018951F920F920FB60F928A
S11302F011240F900FBE0F901F9018951F920F920C
S11303000FB60F9211241DBC1CBC939A0F900FBE04
S11303100F901F90189510929700109296001092CB
S11303209500109294000895EE0FFF1F0590F4912C
S1130330E02D0994FB01DC010D900020E9F71197F1
S113034001900D920020E1F70895FB01DC018D91ED
S1130350019080190110D9F3990B0895F894FFCFF7
S113036061612300616223006261230062622300F1
S113037063612300636223006461230064622300D9
S113038065612300656223006661230066622300C1
S10703907A7A23004E
S9030000FC
